:020000040800F2
:1000000060040020B1010008B5010008B701000834
:10001000B9010008BB010008BD0100080000000094
:10002000000000000000000000000000BF01000808
:10003000C101000800000000C3010008C50100085C
:10004000C7010008C7010008C7010008C701000870
:10005000C7010008C7010008C7010008C701000860
:10006000C7010008C7010008C7010008C701000850
:10007000C7010008C7010008C7010008C701000840
:10008000C7010008C7010008C7010008C701000830
:10009000C7010008C7010008C7010008C701000820
:1000A000C7010008C7010008C7010008C701000810
:1000B000C7010008C7010008C7010008C701000800
:1000C000C7010008C7010008C7010008C7010008F0
:1000D000C7010008C7010008C7010008C7010008E0
:1000E000C7010008C7010008C7010008C7010008D0
:1000F000C7010008C7010008C7010008C7010008C0
:10010000C7010008C7010008C7010008C7010008AF
:10011000C7010008C7010008C7010008C70100089F
:10012000C7010008C7010008C7010008C70100088F
:1001300000F002F800F02CF80AA090E8000C8244CD
:100140008344AAF10107DA4501D100F021F8AFF2AA
:10015000090EBAE80F0013F0010F18BFFB1A43F0A5
:1001600001031847C4010000D4010000002300244B
:1001700000250026103A28BF78C1FBD8520728BFB7
:1001800030C148BF0B6070471FB51FBD10B510BD13
:1001900000F02BF81146FFF7F7FF00F06BF800F0C6
:1001A00049F803B4FFF7F2FF03BC00F051F8000078
:1001B00008480047FEE7FEE7FEE7FEE7FEE7FEE74A
:1001C000FEE7FEE7FEE7FEE703480449024A044B68
:1001D000704700003101000860000020600400202A
:1001E00060000020704770477047754600F02CF89B
:1001F000AE4605006946534620F00700854618B014
:1002000020B5FFF7E1FFBDE820404FF000064FF0BA
:1002100000074FF000084FF0000B21F00701AC463B
:10022000ACE8C009ACE8C009ACE8C009ACE8C0095A
:100230008D46704710B50446AFF300802046BDE8F8
:100240001040FFF7AEBF00000048704700000020DC
:1002500001491820ABBEFEE72600020070470146A8
:1002600005E06E2200E0521E002AFCD1491E002942
:10027000F7D1704751E02948806940F04000274994
:1002800088612748006820F4700025490860084606
:10029000006840F48010086021480C30006820F0AD
:1002A00020001F490C31086041F28830FFF7D7FF6A
:1002B0001B481030006840F02000194910310860D8
:1002C00041F28830FFF7CBFF1448806940F0080006
:1002D000124988611348006820F4700011490860D1
:1002E0000846006840F4801008600E48143000682A
:1002F00040F020000B491431086041F28830FFF7CC
:10030000AEFF08481030006840F020000549103169
:10031000086041F28830FFF7A2FFACE7001002400E
:1003200000180140000C01403803000800000020C4
:08033000600400006C010008EC
:0400000508000131BD
:00000001FF
